### 问题描述
在Linux系统中，我无法基于目标地址字段（即“tgt”字段）过滤邻居通告（Neighbor Advertisement, NA）包。这使得IPv6的NDP欺骗攻击难以预防。

### 示例日志
当一个MAC地址为`aa:bb:cc:dd:ee:ff`的设备尝试使用地址`2001:ffff:1002:51::`时，Wireshark和tcpdump的日志如下：

#### Wireshark
```
src: fe80::aabb:ccff:fedd:eeff    dst: ff02::1    proto: ICMPv6 (type 136)
info: Neighbor Advertisement 2001:ffff:1002:51:: (rtr) is at aa:bb:cc:dd:ee:ff
```

#### tcpdump
```
16:57:40.303118 IP6 fe80::aabb:ccff:fedd:eeff > ff02::1: ICMP6, neighbor advertisement, tgt is 2001:ffff:1002:51::, length 32
```

### 问题核心
`ip6tables`不提供指定ICMPv6包中的“tgt”字段的选项，这使得防止NDP中毒攻击变得困难。尽管有人曾提议开发一种名为`ndptables`的工具作为替代方案，但该想法未能实现。

### 解决方案
#### 使用Firehol
可以使用Firehol来阻止所有ICMPv6流量：
```sh
ipv6 interface any v6interop proto icmpv6
  policy drop
```
如果你不想使用Firehol，可以查看由Firehol生成的`ip6tables`规则。更多详细信息请参阅[Firehol文档](https://firehol.org/documentation/)。

#### 使用`ip6tables`和`u32`模块
通过`u32`模块，可以在`ip6tables`中根据目标地址字段（tgt）过滤ICMPv6邻居通告包。

1. **捕获要过滤的包**
   ```sh
   tcpdump -ttt -vvv -xx -n -i eno1 "icmp6 && ip6[40] == 136"
   ```

2. **示例包**
   ```
   00:00:05.054822 IP6 (class 0xe0, hlim 255, next-header ICMPv6 (58) payload length: 32) fe80::2ff:ffff:feff:fffe > fe80::ec4:7aff:fed9:7d0e: [icmp6 sum ok] ICMP6, neighbor advertisement, length 32, tgt is fe80::2ff:ffff:feff:fffe, Flags [router, solicited, override]
     destination link-address option (2), length 8 (1): 00:ff:ff:ff:ff:fe
   0x0000:  00ff ffff fffe
   0x0000:  0cc4 7ad9 7d0e 00ff ffff fffe 86dd 6e00
   0x0010:  0000 0000 0020 3aff fe80 0000 0000 0000
   0x0020:  02ff ffff feff fffe fe80 0000 0000 0000
   0x0030:  0ec4 7aff fed9 7d0e 8800 8f7a e000 0000
   0x0040:  fe80 0000 0000 0000 02ff ffff feff fffe
   0x0050:  0201 00ff ffff fffe
   ```

3. **编写`ip6tables`规则**
   假设要阻止的目标地址是`fe80::2ff:ffff:feff:fffe`，可以使用以下规则：
   ```sh
   ip6tables -I INPUT 1 -p icmpv6 --icmpv6-type neighbor-advertisement -m u32 --u32 "48=0xfe800000 && 52=0x00000000 && 56=0x02ffffff && 60=0xfefffffe" -j LOG --log-prefix "Bad neighbor-advertisement tgt:"
   ```

   此规则将匹配并记录具有特定目标地址的邻居通告包。

### 注意事项
- 该规则基于目标地址（tgt），而不是源地址。
- 请确保在实际环境中测试这些规则，以避免误报或漏报。

希望这些信息能帮助你解决IPv6 NDP欺骗防护的问题。